:08180000D217040000000000F3
:08184800E00E040000000000A6
:08188000640F040000000000E9
:0818A000B00E0400000000007E
:0818E8000C0F040000000000D9
:08193000380F04000000000064
:081BF800851F7800F7C8BF004B
:101C00000160EF001080B200070032003080B200A7
:101C10000B0032001080B2000D0032007080B20064
:101C20004A0032004C0037001450800034C5B20026
:101C300002003A00F768EC00F828EF004600370091
:101C400002CABF00FCE8B700F768EC0042003700AA
:101C50001450800054C4B20035003A00C4478000DC
:101C60006A20E10032003500C44780006A20E100AC
:101C700009003A00E447800004C5B20006003A00BB
:101C8000F828EF0014002000D447880010C0B300EB
:101C9000F7E8B70025003700E447800004C5B2002C
:101CA00007003A00C44780006A20E10004003200C7
:101CB000F828EF0010C0B300F7E8B7001B003700AA
:101CC000E4478000B4C4B20004003A00F828EF00F2
:101CD00010C0B300F7E8B70014003700E4478000F5
:101CE00084C4B20004003A00F828EF0010C0B3002A
:101CF000F7E8B7000D003700E447800074C5B20074
:101D000007003A001428EF006028EF00AC28EF002D
:101D1000F828EF0010C0B300F7E8B7000300370061
:101D2000F828EF0010C0B300F7E8B700060037004E
:101D3000C48E2000C347800084824100028ABF0015
:101D400080429800F828EC000300370010C0B30070
:101D5000F7E8B70000003700CF0278000000060067
:101D60004200F8003600F8003200F800801F7800CA
:101D7000200020000C000900B01F78002202AE00F5
:101D8000FEFF37003011800000EAB70000CABF0034
:101D900002EAB700FC0D0200000000008560A90007
:101DA000A00120000C0009004F1078004F007800BF
:101DB0003200F9003600F9004200F9000040060048
:101DC0004200F8003600F8003200F800801F78006A
:101DD000200020000C000900B01F7800C022A800DD
:101DE000C222AF00020037001428ED0001003700C6
:101DF0001428EC008400A900A00120000C000900B8
:101E00004F1078004F0078003200F9003600F900DA
:101E10004200F900004006004200F8003600F800D9
:101E20003200F800801F7800200020000C0009001C
:101E3000B01F7800C042A800C242AF0002003700C5
:101E40006028ED00010037006028EC008680A900C2
:101E5000A00120000C0009004F1078004F0078000E
:101E60003200F9003600F9004200F9000040060097
:101E70004200F8003600F8003200F800801F7800B9
:101E8000200020000C000900B01F7800C082A800CC
:101E9000C282AF0002003700AC28ED00010037001D
:101EA000AC28EC0087A0A900A00120000C000900CC
:101EB0004F1078004F0078003200F9003600F9002A
:101EC0004200F900004006004200F8003600F80029
:101ED0003200F800801F7800200020000C0009006C
:101EE000B01F7800FD08A800FD28A800FD48A80044
:101EF00084E0A900A00120000C0009004F10780028
:101F00004F0078003200F9003600F9004200F90075
:101F1000004006001021EF0004FA20006408880049
:101F2000040128008408880094E0A800000006004E
:101F30009400A8008200A9009680A8008220A90031
:101F400097A0A8008240A90082E0A9000000060036
:101F50001C29EF001E29EF002029EF002229EF00A5
:101F60002429EF002629EF002A29EF002C29EF0071
:101F70002E29EF003029EF003229EF003429EF003D
:101F80003629EF003829EF003A29EF003C29EF000D
:101F90003E29EF004029EF004229EF004429EF00DD
:101FA0004629EF004829EF004A29EF004C29EF00AD
:101FB0004E29EF005029EF005229EF005429EF007D
:101FC0005629EF005829EF005A29EF005C29EF004D
:101FD0005E29EF006029EF006229EF006429EF001D
:101FE0006629EF00000006000000E0004220AF007C
:101FF000040037003B1F0900000000000000E9005A
:10200000FCFF3A0000000600851F7800C500200094
:1020100003000900B51F78000202B8000303B800EE
:102020004200A9008502430060844B00020BB80007
:1020300085024B0008844B00030BB80008044300E2
:102040000780B000870178000801780085007800DB
:10205000040078002501200003000900CF12780059
:10206000CF02780000000600851F7800C500200020
:1020700003000900B51F7800090020004300AF00ED
:1020800019002000891F78000002EB008002EB009D
:102090000003EB008003EB00030469001100320031
:1020A000080220004200A9000080D2008180D200F6
:1020B0000482D2008582D2000328E10001003A00A8
:1020C00002A0E100030039000202520083825A009C
:1020D0004200A8000683D2008783D2000804E900EA
:1020E000F0FF3A008700780006007800CF047800FF
:1020F0000900E000010032000400BE0025012000BC
:1021000003000900CF127800CF027800000006001B
:102110001C09E20001003A00CC62A800E4488000FB
:102120006120E10001003A00CC62A9000000060035
:10213000851F7800C500200003000900B51F780046
:10214000000278008102780002037800830378009F
:102150000000EB008000EB000001EB008001EB00D1
:102160000800A10007F0A600050037000800A00045
:102170000402EA008582EA000683EA008783EA0017
:102180008504720002003A008704730015003200D3
:10219000394720000340A7000B0037004200A90088
:1021A0000482D2008582D2000683D2008783D200C7
:1021B0000080D2008180D2000281D2008381D200CF
:1021C0008904E900F3FF3A00C44CDD004200A90095
:1021D00009F0A1000340A10083816C000800A70062
:1021E00003F0A0002501200003000900CF127800B1
:1021F000CF02780000000600881F78002801200028
:1022000004000900B81F7800080028004300AF0050
:1022100087036C000000E00007003A000100E000C6
:1022200005003A000200E00003003A00FAFF270030
:102230000A8561004220AE00030578008A856B00A4
:10224000030478008704780007067800FD7F2000EB
:102250004220A9004200A90044C4DE0008846600B0
:102260000800E000BC0032004220A9004200A900A2
:10227000C4CCDE00898466000900E000BE003200A4
:102280008006EB004220A9004200A9000848E100B6
:10229000BA003200C10033000D00A1000D10A000F3
:1022A00008845400F300B2000340A000F700B2001D
:1022B0000740A0004803B10016003B004803B000EF
:1022C0004220A9004200A9008381D3000281D300EB
:1022D0008180D3000080D3000804E900F8FF3A00B1
:1022E000140037004803B1000F003B004803B00062
:1022F0004220A9004200A9008783D3000683D300AF
:102300008582D3000482D3000804E900F8FF3A0074
:102310001B00370004007800850078000601780073
:10232000870178000C866D000CF0A7000BF0A2006E
:10233000790037000BF0A6001F0037000D40A70002
:102340008C0578000080EA008180EA000281EA00C2
:1023500083C1EA00F341B2000000E80005003A0042
:102360008100E80003003A000201E80001003A00A1
:102370008341E8000D40A700320037000E0037000F
:102380000BF0A6000C0037000482EA008582EA0008
:102390000683EA0087C3EA00F741B2000402E800BE
:1023A00005003A008502E80003003A000603E80051
:1023B00001003A008743E8004220A9004200A9003A
:1023C00004004000858048000601490087C149009B
:1023D0000350A7000D30A0000D00A7000900370032
:1023E0000D10A700010037000B0037000BF0A7000D
:1023F000140037000D30A700290037000D60A00041
:10240000210037000BF0A7000E0037000D30A700A9
:10241000230037001C0037000BF0A7000400370032
:102420008A0578000D30A7001D0037003A003700FC
:102430000D40A00003C1B2000340A700BFFF37005A
:102440008A057800F301B2000284710002003A00AC
:10245000008470000C0032000340A7000A0037001F
:102460004220A9004200A9000080D2008180D20051
:102470000281D2008381D2008904E9004220AF00AA
:1024800032003700F4FF37000D00A7008A057800FE
:102490000D10A7008C0578000D50A6001E00370017
:1024A0004200A90083C1D3000281D3008180D30000
:1024B0000080D3004200AF000D50A0008904E80066
:1024C0004220AF00210037000D50A6000E0037005B
:1024D0000000E8000C003A008100E8000A003A0021
:1024E0000201E80008003A008301E80006003A0013
:1024F00083C1D3000281D3008180D3000080D30048
:102500008904E800110032000D00A7008A05780058
:102510000D10A7008C0578000102700002003A003F
:1025200003027100260032000340A1004220A900EE
:102530004200A900C44CDD0083816C0003F0A000C0
:102540000BF0A60003F0A1001D0037006000B800EA
:102550006011B8001A003700080028000AF0A70030
:1025600087036C008500780004007800060178007D
:10257000870178001200370011003700F700B20021
:102580000740A000F300B2000340A0000BF0A7003A
:102590000740A1000D20A00079FF3700F300B20032
:1025A0000340A000F700B2000740A0000904540057
:1025B000890444000D10A1000D00A00049FF370060
:1025C000A8012000040009004F1478004F0478008F
:1025D00000000600881F7800280120000400090080
:1025E000B81F78008005EB006066B800030478002F
:1025F00087047800FA7F20004200A9004220A90049
:1026000044C4DE00080465000800E00071003200E8
:102610004200A9004220A900C4CCDE008904650064
:102620000900E0006B0032000884440009B0A700F4
:1026300004003700F83FB100660032006500390041
:10264000030037001A402000854245006100310038
:10265000878669004200A9004220A900F300B20069
:102660000340A000F700B2000740A000881F7800D8
:102670000124B800002DB8000A0544008B854C00E9
:102680000C80B0000224B8008B0544000C864C007E
:10269000012CB8000005EB008B0544000C864C00B3
:1026A0000A80B0000034B8008B0544000C864C0052
:1026B0000A80B0008005EB000324B8000C0644003B
:1026C0000A854C000B80B000022CB8000C064400B8
:1026D0000A854C000B80B0000134B8000C064400A1
:1026E0000A854C000B80B000003CB8000C0644008A
:1026F0000A854C000B80B0000C0078000006EB004F
:10270000032CB8000A0544008B854C000C80B000F7
:102710000234B8000A0544008B854C000C80B000E0
:102720000334B8008B0544000C864C00013CB80013
:102730000A0544008B854C000C80B000023CB800B8
:102740008B0544000C864C00033CB8000C0644008A
:102750008A0078000B0178008C017800540020007A
:102760004200A9008381D3000281D3008180D3007D
:102770000080D3000402E900F9FF3A004F0478001A
:102780000804E80001037000010032000200370075
:1027900003037100080032000340A7000600370061
:1027A0004200A9000080D2008180D2000281D200C4
:1027B0008381D2000804E9004444DD0003F0A10055
:1027C0000DF0A70003F0A0000340A10083016C00FE
:1027D000030037006000B8006001B8000000370057
:1027E000A8012000040009004F1478004F0478006D
:1027F00000000600881F7800891F78008A1F780073
:102800008784690009F0A600060037004200A9008D
:102810004220A90003F0A600340037004200A800BF
:1028200032003700FA7F2000030478008704780024
:1028300044C4DE0008046500C4CCDE0089046500E1
:10284000088554000500320003F0A6002700370079
:102850001000200042E0B600240037000304780096
:1028600087047800F301B200F701B2000340A10031
:102870000740A10003C553000500320008F0A60080
:102880001A0037001000200042E0B60017003700A1
:10289000020553000500320008F0A60013003700BF
:1028A0001000200042E0B600100037000185520001
:1028B0000500320008F0A6000C00370010002000D0
:1028C00042E0B60009003700000552000500320062
:1028D00008F0A600050037001000200042E0B60016
:1028E000020037004200A900000037004F057800C1
:1028F000CF0478004F04780000000600851F7800A0
:10290000C500200005000900B51F78000304780009
:102910008203780001037800800278008304780045
:102920003B472000C499DE00FA7F20008301650048
:1029300083855500F801B2000840A0000000EB00BC
:102940008000EB000001EB008001EB004200A900D9
:102950000884D3008783D3000683D3008582D30005
:102960008381D3000281D3008180D3000080D30013
:102970008B05E900F5FF3A0009F0A60005003700D5
:102980000000EA008180EA000281EA008381EA0017
:10299000000037006501200005000900CF12780013
:1029A000CF02780000000600851F7800861F78009F
:1029B000871F7800881F78005449800043498000B1
:1029C000030052002CA9B7002C89BF008001EB0046
:1029D00000F0A7008081EB008300780003017800FD
:1029E00098100200000000004300A90000027800D7
:1029F0008102780002037800830378006089BF00B9
:102A0000114B8000224B8000334B8000FC100200F1
:102A10000000000060A9B700114B8800224B88001D
:102A2000334B88006089BF00114B8000224B80002F
:102A3000334B8000C4498000D5498000E6498000BE
:102A4000F7498000EA1202000000000050A9B70018
:102A5000914A8800A24A8800B34A880074498000DD
:102A600063498000030052000100200002002000A2
:102A7000030020009810020000000000800278008F
:102A8000010378008203780003047800851F780032
:102A9000861F7800871F7800050078008600780080
:102AA0000701780088017800044A8000154A8000F8
:102AB000264A8000374A8000EA1202000000000027
:102AC000CF0378004F037800CF02780058A9B700F1
:102AD000D14A8800E24A8800F34A88002C89BF0066
:102AE0008001EB0000F0A7008081EB0083007800FC
:102AF00003017800981002000000000080027800B6
:102B0000010378008203780003047800851F7800B1
:102B1000861F7800871F78000500780086007800FF
:102B20000701780088017800844980009549800079
:102B3000A6498000B7498000EA12020000000000A8
:102B4000CF0378004F037800CF027800800278002E
:102B50000103780082037800030478004300A90091
:102B6000851F7800861F7800871F78000500780091
:102B7000860078000701780088017800844A800088
:102B8000954A8000A64A8000B74A8000FC100200E7
:102B900000000000CF0378004F037800CF027800D8
:102BA0008002780001037800820378000304780033
:102BB0004300A900851F7800861F7800871F7800D2
:102BC0000500780086007800070178008801780009
:102BD000C44A8000D54A8000E64A8000F74A800057
:102BE000FC10020000000000CF0378004F037800C3
:102BF000CF0278001CA9B700F1488800024988007C
:102C0000134988002C09F8002E09F9001C89BF001F
:102C1000F148800002498000134980000400200030
:102C2000050020000600200007002000FA13020023
:102C3000000000000E0039001C89BF00F148800030
:102C40000249800013498000040020000500200094
:102C50000600200007FF2B00EA120200000000001F
:102C60001CA9B700F1488800024988001349880070
:102C7000000020000100200002002400F30A2400CC
:102C8000E4488000F548800006498000174980002C
:102C9000FA13020000000000060039001C29EF00B2
:102CA0001E29EF000400240004498800F40A2400CF
:102CB000144988001C89BF00F14880000249800047
:102CC000134980007E1402000000000000A0B7003D
:102CD0004F047800CF0378004F037800CF027800CC
:102CE000000006001C09E20001003A00CCA2A80086
:102CF000E44880006120E10001003A00CCA2A90074
:102D000000000600851F7800C500200003000900B0
:102D1000B51F780000F0A6000C0037000000EA00A4
:102D20000480A00004F0A60008003700801F78008F
:102D3000D00220002322AF00FEFF370024A2B700FC
:102D40004F0078000480A1000860ED008002EB00D5
:102D5000800378008404780004F0A1000404E000FB
:102D600006003A0009F0A700020037000500200025
:102D70000F003700050020000D003700E64252002A
:102D80000A0039000003200009F0A600000220001C
:102D90002322AF00FEFF370024A2B7008502E9001E
:102DA000FBFF3B0055002000010037008402780043
:102DB000640020000580A7000402E80005E0A000F0
:102DC00009F0A70005F0A000087122001100090019
:102DD0008883D8002E1702000000000081037800CD
:102DE000883E2000110009008883D8002E170200B9
:102DF000000000008103780048062000110009004F
:102E00008883D8002E17020000000000810378009C
:102E1000A8002000110009008883D8002E170200A6
:102E2000000000000980A60005003700D002200045
:102E30002322AF00FEFF370024A2B7000980A100C3
:102E40000003200000C04000500188002322AF0092
:102E5000FEFF370024A2B700200037000603200041
:102E60000000E0000E003A0005E0A6001600370062
:102E70000402E9000524E100020032004200AF0034
:102E8000000006000000E00005003A0005E0A60092
:102E90000D00370005F0A600060220000A003700EA
:102EA00005E0A1000980A6000700370000057800B2
:102EB000D00220002322AF00FEFF370024A2B7007B
:102EC0000980A1000A007800004043002322AF00DF
:102ED000FEFF370024A2B7000000060025012000F5
:102EE00003000900CF127800CF027800000006002E
:102EF0001C09E20001003A00CD42A800E44880002D
:102F00006120E10001003A00CD42A9000000060066
:102F10001C09E20017003A001E09E20003003A0013
:102F200084572000C40C880011003700F44880004A
:102F30006120E10003003A00843E2000C40C8800B8
:102F40000B003700F44880006220E10003003A00E3
:102F500084572000C40C880005003700F448800026
:102F60006320E10002003A0084572000C40C88006E
:102F70000B003700E44880006120E10008003A00BF
:102F8000F44880006120E10003003A00C42B2000D7
:102F9000C40C880002003700643B2000C40C880089
:102FA000000006000F782200F07F220020A0B7006A
:102FB0000000000040442400300588004044240004
:102FC0004005880081E0A8006004200042E7B700C7
:102FD0007005200042E7B70042C7A900F083200037
:102FE00080A6B70090F0230082A6B700C0F02300AF
:102FF000A4A6B70020012000C4A6B700300120001D
:10300000C6A6B70000402100CAA6B70000302000C5
:10301000CCA6B70050612100CEA6B7006004200006
:1030200042E7B7007005200042E7B70042C7A8009A
:1030300004002800041188000440200014118800B6
:103040002062A9003403200044118800F828EF0012
:10305000FA28EF0010C0B300F7E8B700FD08A90098
:10306000FD28A900FD48A9002CA3EF00EC28EF00E3
:10307000EE28EF00F028EF00F228EF00F428EF0030
:10308000F668EF00FE28EF000029EF000229EF00AC
:1030900081E0A900040E20001402880081E0A8004D
:1030A000030009002682BF008560A9009560A80082
:1030B0008A0F020000000000980F020000000000CC
:1030C00081E0A9004220EF0081E0A80074382300CD
:1030D00044168800F40F20000416880064002000C5
:1030E000240C880064002000540C88006400200038
:1030F000840C880064002000B40C88006400200068
:10310000E40C88008021EF008621EF008C21EF0085
:1031100080802000C19120004B000900B018780089
:10312000A80F0200000000001428EF0040852000D6
:10313000C19120004B000900B0187800A80F0200D0
:10314000000000006028EF00008A2000C1912000EC
:103150004B000900B0187800A80F02000000000022
:10316000AC28EF00B428EF00B628EF00B828EF0035
:10317000E4042400D4458800B408F8001C08F900D1
:10318000B608F8001E08F900B808F8002008F90091
:10319000BA08F8002208F9006828EF006A28EF0052
:1031A0000400280064438800B405240074438800A8
:1031B0002428EF002628EF002828EF002A28EF0017
:1031C0007028EF007228EF007428EF007628EF00D7
:1031D000BC28EF00BE28EF00C028EF00C228EF0097
:1031E000C428EF00C628EF00C828EF00CA28EF0067
:1031F000C408F8007808F900C608F8007A08F90051
:10320000C808F8007C08F900CA08F8007E08F90030
:103210007808F8002C08F9007A08F8002E08F90060
:103220007C08F8003008F9007E08F8003208F90040
:103230000429EF00803E2000F40F0200000000008F
:103240002322AF00FEFF3700A405200024118800D0
:1032500084572000940C8800441F2000C40C880070
:10326000007D2000F40F020000000000843E2000DA
:10327000C40C8800803E2000F40F02000000000013
:10328000D44780006120E1005B003A000029EC0097
:10329000FA28EF00EEC8BF000160EF0000407800A0
:1032A0000BE0B7008042EB00744780004822DE004C
:1032B00084824200050278007320B80016A8B70087
:1032C000ECC8BF000160EF00004078000BE0B700E1
:1032D0008042EB00644780004822DE008482420086
:1032E000050278007320B80062A8B700F0C8BF00DC
:1032F0000160EF00004078000BE0B7008042EB0077
:10330000844780004822DE00848242000502780063
:103310007320B800AEA8B700F2C8BF000160EF008C
:10332000004078000BE0B7008042EB00944780003B
:103330004822DE000480420002A8B7000428EF0003
:1033400084162000134080000300520002A8B7003A
:10335000040020002340800003005A0004A8B700A6
:103360000288BF0021408000826E20000300200000
:1033700004100200000000008002780001037800C1
:103380004300A9000500780086007800821620001E
:1033900003002000341002000000000080027800CA
:1033A00001037800041920000480420002A8B7003D
:1033B00060034B002640880084872000940C88001E
:1033C000F4C8BF0000E8B7000168EF00F5C8BF000F
:1033D00006E8B7000768EF001400200014488800D2
:1033E000140020008440880014002000E44288007B
:1033F0001400200044458800144880006120E1004A
:10340000B8003A001400200034488800140020005E
:1034100044488800140020005448880084408000FC
:103420006120E10022003A001488BF00B44080000F
:103430000020E100030034001400200094408800C4
:10344000050037001688BF00A44080000020E1007E
:10345000010034001228EF001208F8001C09F900DE
:103460008810020000000000FD08AE0010003700C8
:1034700080802000C19120004B000900B018780026
:10348000D41402000000000080027800050C8800BF
:1034900080802000C19120004B000900B018780006
:1034A000D41402000000000006A9B700FD08A9001E
:1034B000E44280006120E1003B003A006088BF00E8
:1034C000144380000020E1000300340014002000B9
:1034D000F4428800050037006288BF000443800082
:1034E0000020E100010034005E28EF005E08F800D3
:1034F0001C09F9007216020000000000FD28AE0051
:103500002900370040852000C19120004B000900B0
:10351000B0187800D4140200000000008002780087
:10352000350C880040852000C19120004B00090027
:10353000B0187800D41402000000000008A9B700F9
:1035400024488000C35D20000418E1001500350008
:103550006288BF0004002000821602000000000004
:103560002322AF00FEFF3700C40220002411880090
:103570006088BF00040020008216020000000000E6
:103580002322AF00FEFF3700D40020002411880062
:103590002322AF00FEFF3700A40020002411880082
:1035A0000429EC00FD28A900444580006120E100C9
:1035B0002C003A000609E2002A003A000809E2005D
:1035C00028003A000208F8009201F9000608E2001B
:1035D00002003A00C42B2000C40C8800AC88BF0055
:1035E000744580000020E100030034001400200036
:1035F0005445880005003700AE88BF006445800050
:103600000020E10001003400AA28EF00AA08F80019
:103610001C09F9007817020000000000FD48AE0008
:1036200010003700008A2000C19120004B000900E3
:10363000B0187800D4140200000000008002780066
:10364000650C8800008A2000C19120004B00090011
:10365000B0187800D4140200000000000AA9B700D6
:10366000FD48A9000A09E2001E003A00A828EF0060
:103670000608F8001C09F9000008F8001E09F90006
:103680008817020000000000803E2000F40F0200B6
:1036900000000000CA42AE00060037001C29EF00FF
:1036A0007817020000000000047D2000640C8800F0
:1036B000F8FF3700CA42AF00040037002322AF00F2
:1036C000FEFF3700A405200024118800344080004C
:1036D0006120E10002003A00441F2000C40C880071
:1036E0008C21EF00C002A800C202AE000500370026
:1036F000E447800084C4B20002003200FE08E20009
:10370000B5003A000029EF00FC68EF00140020002B
:10371000F44788000229EF000C29EF000E29EF0082
:103720001029EF0084872000940C8800441F20009B
:10373000C40C88000C09E200040032000E09E2000B
:10374000020032001009E20028003A000C09E200F1
:103750000B003A00CA02AF0004003700140020003A
:10376000644888008021EF00050037001C29EF0025
:103770008810020000000000047D2000040C880076
:103780000E09E2000B003A00CA22AF000400370025
:1037900014002000744888008621EF0005003700DF
:1037A0001C29EF007216020000000000047D2000BA
:1037B000340C88001009E2000B003A00CA42AF0046
:1037C0000400370014002000844888008C21EF009A
:1037D000050037001C29EF007817020000000000E8
:1037E000047D2000640C8800D2FF3700644880000C
:1037F0006120E10006003200744880006120E10091
:1038000003003200844880006120E10037003A0064
:10381000644880006120E1000F003A00CA02AE0057
:10382000070037002400200064488800800C200036
:10383000F40F0200000000008021EF0006003700B6
:1038400014002000E44888008810020000000000F6
:10385000047D2000040C8800744880006120E10091
:103860000F003A00CA22AE000700370024002000F3
:1038700074488800800C2000F40F02000000000053
:103880008621EF000600370014002000E44888007D
:103890007216020000000000047D2000340C880035
:1038A000844880006120E1000F003A00CA42AE0067
:1038B000070037002400200084488800800C200086
:1038C000F40F0200000000008C21EF00060037001A
:1038D00014002000E448880078170200000000006F
:1038E000047D2000640C8800C0FF3700644880001D
:1038F0006220E10006003200744880006220E1008E
:1039000003003200844880006220E10028003A0071
:10391000644880006220E1000A003A00CA02AF0059
:10392000030037000C29EF008021EF00050037006D
:103930001C29EF008810020000000000441F200036
:10394000040C8800744880006220E1000A003A00FC
:10395000CA22AF00030037000E29EF008621EF00D6
:10396000050037001C29EF0072160200000000005D
:10397000843E2000340C8800844880006220E100EE
:103980000A003A00CA42AF00030037001029EF00D6
:103990008C21EF00050037001C29EF00781702008A
:1039A0000000000084572000640C8800CFFF37001F
:1039B00040062000F40F0200000000001428EF0071
:1039C0006028EF00AC28EF002322AF00FEFF370095
:1039D000A405200024118800CA02AF0001003700AE
:1039E0001428EF00CA22AF00010037006028EF0062
:1039F000CA42AF0001003700AC28EF0020FE3700BC
:043A00000040FE0084
:020000040001F9
:0807F800C7F900FF7F3F00FF7D
:00000001FF
;PIC24FJ48GA002
;CRC=CD00  CREATED="25-¾.Â.-16 16:28"
